:030000000209A250
:0C09A200787FE4F6D8FD75811102080092
:0A09AE00407924301912027800107D
:10098F00758901758CFC758A18D28C308DFDC28DDE
:03099F00C28C22E5
:10097000AE0AAF0B7C007D0A1208B68E088F09AE56
:0F0980000AAF0B7C007D0A1208B68C0C8D0D227D
:1009410074AE2509F58274093508F583E493F5B091
:10095100D2A012098FC2A074AE250DF5827409359B
:0F0961000CF583E493F5B0D2A112098FC2A12245
:10080000C280D281D282750A00750B0AE4F510F518
:10081000111209410511E51170020510C394F4E5A8
:10082000106480948140EA120970E50B150B700288
:10083000150AC3E50A6480948050D1D280C281D267
:1008400082750A00750B05E4F510F51112094105D2
:1008500011E51170020510C394F4E51064809481D1
:1008600040EA120970E50B150B7002150AC3E50A80
:100870006480948050D1D280D281C282750A007582
:100880000B0AC3E50A648094805003020800E4F573
:1008900010F5111209410511E51170020510C394FC
:1008A000F4E5106480948140EA120970E50B150BA1
:0608B00070D0150A80CC97
:1008B600C2D5EC30E709B2D5E4C39DFDE49CFCEE5D
:1008C60030E715B2D5E4C39FFFE49EFE1208ECC3E1
:1008D600E49DFDE49CFC80031208EC30D507C3E4DC
:0608E6009FFFE49EFE22CC
:1008EC00BC000BBE0029EF8DF084FFADF022E4CCF0
:1008FC00F875F008EF2FFFEE33FEEC33FCEE9DECB9
:10090C00984005FCEE9DFE0FD5F0E9E4CEFD22EDFE
:10091C00F8F5F0EE8420D21CFEADF075F008EF2F48
:10092C00FFED33FD4007985006D5F0F222C398FD39
:05093C000FD5F0EA22D6
:00000001FF
