:1000000002029A02027A00000000000200000000D2
:1000100000000002000000000000000200000000DC
:06002000000000020000D8
:0A0026007E097FE9DFFEDEFC002208
:020030000022AC
:060032007F14DFFE002236
:10003800E5105480F8630080E86004780080027856
:1000480001E81392A5E5105440F8630040E8600405
:10005800780080027801E81392A4E5105420F86330
:100068000020E86004780080027801E81392A3E594
:10007800105410F8630010E86004780080027801DA
:10008800E81392A2E5086004780080027801E8137A
:1000980092A0D2A11130C2A1E5105408F86300085B
:1000A800E86004780080027801E81392A5E510540E
:1000B80004F8630004E86004780080027801E8131B
:1000C80092A4E5105402F8630002E8600478008006
:1000D800027801E81392A3E5105401F8630001E8DF
:1000E8006004780080027801E81392A2E5086004B1
:1000F800780080027801E81392A0D2A11130C2A141
:0B010800E5086004112680021132227D
:0C011300750800850F10113875080122D6
:10011F00C2A1C2A0112611261126C2A5C2A4C2A334
:10012F00C2A2D2A3D2A2D2A11130C2A11126D2A1B2
:10013F001130C2A11126D2A11130C2A11126D2A312
:10014F00C2A2D2A11130C2A11126C2A5C2A4C2A3BC
:10015F00D2A3C2A2D2A11130C2A1C2A3D2A5D2A151
:10016F001130C2A11126C2A5D2A2D2A11130C2A1B3
:10017F00C2A2D2A11130C2A11126C2A2D2A11130A6
:10018F00C2A1D2A2D2A11130C2A11126C2A2D2A164
:10019F001130C2A1D2A5D2A4D2A3D2A2D2A1113022
:0801AF00C2A11126750801220E
:0801B700E493F608A3D9F92234
:1001BF00BD000BB90029E88CF084F8ACF022E4CD37
:1001CF00FF75F008E828F8E933F9ED33FDE99CED08
:1001DF009F4005FDE99CF908D5F0E9E4C9FC22EC44
:1001EF00FFF5F0E98420D21CF9ACF075F008E8288F
:1001FF00F8EC33FC40079F5006D5F0F222C39FFC6A
:05020F0008D5F0EA2211
:100214008019750B80802E750BC08029750B948016
:1002240024750BD4801F750B80801AE50B64016064
:10023400E1E50B640260E0E50B640360DFE50B6459
:100244000460DE80E1C3E50C9401F8E50B28F88531
:10025400000B8500101138750800750E00E50D259A
:100264000EF8E6600DE50D250EF8860F3113050E28
:0602740080EB7508012279
:10027A00C0D0C0E0C0F0C082C083C2AFD3E509924B
:10028A00E0F509D2AFD083D082D0F0D0E0D0D0321E
:10029A0075814112038DC3E50992E0F5097580FF66
:1002AA0075B0FF75A881311F751001113875100CD2
:1002BA0011387510011138750B01750C01750D3562
:1002CA005114E50930E0137401253EF53E740035FA
:1002DA003FF53FC3E50992E0F509853E80A84085D0
:1002EA00000A7CE87D03A83EA93F31BF743028F993
:1002FA00A80AA601E5402401F885000A7C647D006D
:10030A00A83EA93F31BF7C0A7D0031BFA804A905D8
:10031A00743028F9A80AA601E5402402F885000AE3
:10032A007C0A7D00A83EA93F31BF7C0A7D0031BF0F
:10033A00A804A905743028F9A80AA601E5402403EF
:10034A00F885000A7C0A7D00A83EA93F31BFA804AF
:10035A00A905743028F9A80AA601750B02750C06BE
:10036A0085400D51147EA37F1EDFFEDEFC0041CCCA
:02037A0080FE03
:0E038D007830791175827C7583031201B722D6
:05037C003030303000BC
:09038100426F2064656D3A200012
:02038A00000071
:01038C003040
:00000001FF
