:10000000020207020000000000000002008300005E
:1000100000000002000000000000000200000000DC
:06002000000000020000D8
:10002600BD000BB90029E88CF084F8ACF022E4CDD1
:10003600FF75F008E828F8E933F9ED33FDE99CEDA2
:100046009F4005FDE99CF908D5F0E9E4C9FC22ECDE
:10005600FFF5F0E98420D21CF9ACF075F008E82829
:10006600F8EC33FC40079F5006D5F0F222C39FFC04
:0500760008D5F0EA22AC
:08007B00E493F608A3D9F92271
:10008300C000C001C002C003C004C005C007C0D087
:10009300C0E0C0F0C082C083C28C758CFC758A1826
:1000A300D28C74012546F54674003547F547740133
:1000B3005546F974005547FAE94A70357580FF5380
:1000C30090F07408250EF88680E50F42907801E5DC
:1000D3000F088002C333D8FCF985010FD3E99408D4
:1000E3004003750F01050ED3E50E94034003750E0F
:1000F3000074056546700474006547600221EE755F
:1001030046007547007401254AF54A7400354BF5DE
:100113004B743C654A70047400654B70427401254E
:1001230044F54474003545F545754A00754B007434
:100133003C6544700474006545702474012548F5DA
:100143004874003549F549754400754500741865D0
:100153004870047400654970067548007549007C51
:100163000A7D00A848A949112685000C85010D7B4D
:1001730001E80B8002C333DBFCFA74302AF8860BE8
:100183007C0A7D00A848A9491126A804A905850071
:100193000C85010D7B01E80B8002C333DBFCFA7491
:1001A300302AF8860A7C0A7D00A844A945112685D1
:1001B300000C85010D7B01E80B8002C333DBFCFAE5
:1001C30074302AF886097C0A7D00A844A9451126C3
:1001D300A804A90585000C85010D7B01E80B8002AD
:1001E300C333DBFCFA74302AF88608D083D082D07C
:1001F300F0D0E0D0D0D007D005D004D003D002D0C7
:0402030001D00032F4
:1002070075814C1202D3758901758CFC758A187536
:10021700A882D28C7580FF5390F0750E00750F0180
:100227007C0A7D00A848A949112685000C85010D87
:100237007B01E80B8002C333DBFCFA74302AF886B3
:100247000B7C0A7D00A848A9491126A804A90585A1
:10025700000C85010D7B01E80B8002C333DBFCFA40
:1002670074302AF8860A7C0A7D00A844A94511261D
:1002770085000C85010D7B01E80B8002C333DBFC95
:10028700FA74302AF886097C0A7D00A844A945112A
:1002970026A804A90585000C85010D7B01E80B80C4
:1002A70002C333DBFCFA74302AF8860880FE80FE2E
:0E02D3007830791C7582B775830212007B2289
:1002B700C000F900A400B000990092008200F80085
:0402C7008000900023
:0202CB00280009
:0202CD0000002F
:0202CF00150018
:0202D1003700F4
:00000001FF
