:100000000200DE020000000000000002000000000C
:1000100000000002000000000000000200000000DC
:06002000000000020000D8
:10002600BD000BB90029E88CF084F8ACF022E4CDD1
:10003600FF75F008E828F8E933F9ED33FDE99CEDA2
:100046009F4005FDE99CF908D5F0E9E4C9FC22ECDE
:10005600FFF5F0E98420D21CF9ACF075F008E82829
:10006600F8EC33FC40079F5006D5F0F222C39FFC04
:0500760008D5F0EA22AC
:10007B00801E78C02278F92278A42278B022789951
:10008B002278922278822278F82278802278902225
:10009B00E51560DEE515640160DBE515640260D8EB
:1000AB00E515640360D5E515640460D2E5156405B8
:1000BB0060CFE515640660CCE515640760C9E515EE
:0B00CB00640860C6E515640960C322EC
:0800D600E493F608A3D9F92216
:1000DE00758116751300751400750A00750B007581
:1000EE00090075080075120275800075108575116E
:1000FE001A751300751400C3E51394FA7400648026
:10010E00F8E514648098400221DE7CE87D03A81097
:10011E00A911112685000A85010B850015117B8515
:10012E00000F7C647D00A810A91111267C0A7D00A9
:10013E001126A804A90585000A85010B8500151155
:10014E007B85000E7C0A7D00A810A91111267C0A61
:10015E007D001126A804A90585000A85010B8500DE
:10016E0015117B85000D7C0A7D00A810A9111126A2
:10017E00A804A90585000A85010B850015117B854C
:10018E00000C850080D2907E027F9DDFFEDEFC009B
:10019E00C290850D80D2917E027F9DDFFEDEFC0037
:1001AE00C291850E80D2927E027F9DDFFEDEFC0024
:1001BE00C292850F80D2937E027F9DDFFEDEFC0011
:1001CE00C29374012513F51374003514F51421052B
:1001DE00C3E5109401F510E5119400F51101FF80AF
:0101EE00FE12
:00000001FF
