:0300000002089F54
:0C089F00787FE4F6D8FD75811B0208E6A6
:1009EF000A0EC0F9A4B0999282F88090021A000002
:1009B600E4FDFCC3ED9FEE6480F8EC64809850156E
:1009C600E4FBFA0BBB00010AEB647D4A70F50DBD32
:0509D60000010C80DEB1
:0109DB0022F9
:10080000AB07AA067C037DE812092B8E088F097CB2
:10081000277D10AF03AE0212092B7E007F64CFCD7F
:10082000CFCECCCE12092B8E0C8F0D7C007D64AF09
:1008300003AE0212092B7E007F0ACFCDCFCECCCEE5
:1008400012092B8E0A8F0BAE02AF037C007D0A12B9
:10085000092B8C188D19C2A0C2A1C2A2C2A3740E0A
:100860002509F8E6F580D2A07F027E001209B6C203
:10087000A0740E250DF8E6F580D2A11209B6C2A12A
:10088000740E250BF8E6F580D2A21209B6C2A27446
:0F0890000E2519F8E6F580D2A31209B6C2A322ED
:03000300020A00EE
:0D0A0000C0E0051BE51B7002051AD0E032B6
:03001300020A0DD1
:0D0A0D00C0E0E51B151B7002151AD0E03289
:1009DC00D2A8D288D2AAD28AD2AFAF1BAE1A120832
:0309EC000080F791
:1008AB000209DCE493A3F8E493A34003F68001F27E
:1008BB0008DFF48029E493A3F85407240CC8C3334E
:1008CB00C4540F4420C8834004F456800146F6DF1D
:1008DB00E4800B01020408102040809009EFE47EB5
:1008EB00019360BCA3FF543F30E509541FFEE49312
:1008FB00A360010ECF54C025E060A840B8E493A3D9
:10090B00FAE493A3F8E493A3C8C582C8CAC583CA03
:10091B00F0A3C8C582C8CAC583CADFE9DEE780BEBB
:0109FF0000F7
:10092B00C2D5EC30E709B2D5E4C39DFDE49CFCEEE7
:10093B0030E715B2D5E4C39FFFE49EFE120961C3F5
:10094B00E49DFDE49CFC800312096130D507C3E4F0
:06095B009FFFE49EFE2256
:10096100BC000BBE0029EF8DF084FFADF022E4CC7A
:10097100F875F008EF2FFFEE33FEEC33FCEE9DEC43
:10098100984005FCEE9DFE0FD5F0E9E4CEFD22ED89
:10099100F8F5F0EE8420D21CFEADF075F008EF2FD3
:1009A100FFED33FD4007985006D5F0F222C398FDC4
:0509B1000FD5F0EA2261
:00000001FF
