:100000000203630200000000000000020000000084
:1000100000000002000000000000000200000000DC
:06002000000000020000D8
:060026007F14DFFE002242
:0A002C007E097FE9DFFEDEFC002202
:020036000022A6
:10003800E5185480F8630080E8600478008002784E
:1000480001E81392A5E5185440F8630040E86004FD
:10005800780080027801E81392A4E5185420F86328
:100068000020E86004780080027801E81392A3E594
:10007800185410F8630010E86004780080027801D2
:10008800E81392A2E5096004780080027801E81379
:1000980092A0D2A11136C2A1E5185408F86300084D
:1000A800E86004780080027801E81392A5E5185406
:1000B80004F8630004E86004780080027801E8131B
:1000C80092A4E5185402F8630002E86004780080FE
:1000D800027801E81392A3E5185401F8630001E8D7
:1000E8006004780080027801E81392A2E5096004B0
:1000F800780080027801E81392A0D2A11136C2A13B
:0B010800E5096004112C800211262282
:060113007F03DFFE002265
:0C011900750900851318113875090122C2
:10012500751300751500751600751710C3E516943F
:100135000450507580F0E51764FFF58011361136CF
:10014500E58044F0F88500146300FF850014E8603D
:100155001B851513E51460117801E514088002C3A9
:1001650013D8FCF514051380EB7516047801E51713
:10017500088002C333D8FCF517E5152404F51505E9
:060185001680A9A8132258
:10018B00C3E50F9430400ED3E50F94395007C3E508
:10019B000F9430F822C3E50F94414013D3E50F942D
:1001AB0046500CC3E50F9441F9780AE928F82278F8
:0201BB00002220
:1001BD008019750F80802E750FC08029750F948062
:1001CD0024750FD4801F750F80801AE50F640160B0
:1001DD00E1E50F640260E0E50F640360DFE50F64A5
:1001ED000460DE80E1C3E5109401F8E50F28F88581
:1001FD00000F8500181138750900751200E51125DD
:10020D0012F8E6600DE5112512F886133119051265
:06021D0080EB75090122CF
:040223007580FF22C1
:08022700E493F608A3D9F922C3
:10022F00C2A1C2A0112C112C112CC2A5C2A4C2A311
:10023F00C2A2D2A3D2A2D2A11136C2A1112CD2A195
:10024F001136C2A1112CD2A11136C2A1112CD2A3E9
:10025F00C2A2D2A11136C2A1112CC2A5C2A4C2A39F
:10026F00D2A3C2A2D2A11136C2A1C2A3D2A5D2A13A
:10027F001136C2A1112CC2A5D2A2D2A11136C2A190
:10028F00C2A2D2A11136C2A1112CC2A2D2A1113683
:10029F00C2A1D2A2D2A11136C2A1112CC2A2D2A147
:1002AF001136C2A1D2A5D2A4D2A3D2A2D2A1113605
:0802BF00C2A1112C75090122F6
:1002C7008019750F80802E750FC08029750F948057
:1002D70024750FD4801F750F80801AE50F640160A5
:1002E700E1E50F640260E0E50F640360DFE50F649A
:1002F7000460DE80E1C3E5109401F8E50F28F88576
:10030700000F750901850018113875090085111846
:06031700113875090122F6
:10031D00C3E50F9400400DD3E50F94095006E50F8A
:10032D002430F822C3E50F940A4013D3E50F940F40
:10033D00500CC3E50F940AF97841E928F82278307A
:01034D00228D
:10034E00312585000FE580540FF9640F60043113D9
:05035E0080F3A80F224E
:1003630075814B120581750A00750B00750C0051E0
:1003730023512F751801113875180C1138750F0199
:1003830075100175114531BD750F02751001751199
:100393003F31BD750800714E850008E860F8805054
:1003A3007508318161750832816175083381617522
:1003B300084181617508348161750835816175086B
:1003C3003681617508428161750837816175083826
:1003D30081617508398161750843816175082A81D6
:1003E30061750830816175082381617508448161F5
:1003F300E508640160AAE508640260A9E5086403EE
:1004030060A8E508640460A7E508640560A6E5083C
:10041300640660A5E508640760A4E508640860A3B2
:10042300E508640960A2E508640A700261D0E50882
:10043300640B700261D5E508640C700261DAE508AB
:10044300640D700261DFE508640E700261E4E50883
:10045300640F700261E9E5086410700261EEE5085B
:100463006423701A050CE50C64017009E53E240150
:10047300F8E4F98004A83EE4F985003E8054E50CD5
:1004830070267804E50A088002C333D8FCF50A8590
:10049300080F318BE50A28F50A750F01853E108593
:1004A300081151C7053E802AE50C640170247804C5
:1004B300E50B088002C333D8FCF50B85080F318B9D
:1004C300E50B28F50B750F02853E1085081151C702
:1004D300053EE50C64026002A162E50A250BF50DF9
:1004E300850BF0E50AA4F885000E7518011138751F
:1004F3000F0175100175113731BD7804E50D0880C2
:1005030002C313D8FCF50F711D850011750F01751A
:10051300100651C7E50D540FF50F711D85001175B8
:100523000F0175100751C7750F0275100175113052
:1005330031BD7804E50E088002C313D8FCF50F71B2
:100543001D850011750F0275100B51C7E50E540F71
:10055300F50F711D850011750F0275100C51C761E0
:030563009680FE81
:0E0581007830791B7582667583051202272279
:07056600746963683A20008C
:07056D00746F6E673A200075
:010574000581
:06057500536F323A200032
:06057B00536F313A20002D
:00000001FF
