:03000000020A6B86
:0C0A6B00787FE4F6D8FD75810C0208E0ED
:1009B8004E6869657420646F3A20004300446F20D4
:0C09C8006E6869657420646F2E2E2E008E
:100A3500E4FDFCC3ED9FEC9E50070DBD00010C804D
:010A4500F2BE
:010A4600228D
:10093E00E4FDFCC3ED9FEC9E5015E4FBFA0BBB00EF
:0F094E00010AEB647D4A70F50DBD00010C80E4D9
:01095D002277
:070A47001209EF7F0A7E0097
:0B0A4E00EF1FAC0670011E4C70F6227A
:1009D400D2807F087E00120A4EC2807F417E0012C0
:0B09E4000A4ED2807F147E00020A4EF3
:10097E00E4FB7D08C280EBC313FBD28030800343BF
:0D098E0003807F047E00120A4EDDE9AF03F6
:01099B002239
:0209EF00AD0752
:1009F1007B08C280ED1392807F057E00120A4ED2E1
:070A010080EDC313FDDBEBE8
:010A080022CB
:1008A300E4FAFF1209D47FCC1209EF7F44120A47FE
:1008B3001209D47FCC1209EF7FBE120A4712097EB8
:1008C300AA0712097EEFFE7C00E42AFFEC3EC4F87F
:0C08D30054F0C8EFC4540F48F50CD2AF2D
:0108DF0022F6
:030A220012099C1A
:100A2500D2A27F037E00120A35C2A27F32020A35A6
:10099C00EF1392A4EFC3131392A5EF1313543F1349
:0C09AC0092A6EF131313541F1392A722FE
:100A5900AB07EBC4540FFF120A22AF0312099C0221
:020A69000A255C
:0C0A77007F01120A597F0A7E00020A3536
:10085E00E4FF12099C7F147E0012093EC2A0C2A1C1
:10086E007F03120A227F057E0012093E120A257F9F
:10087E00647E00120A35120A257F0212099C120AA2
:10088E00257F28120A597F0C120A597F06120A591F
:05089E007F01020A5970
:10095E00ED7006EF2480FA8004EF24C0FA7FE87E63
:10096E0003120A35AF02120A597F327E00020A358F
:080A8300D2A0120A59C2A02200
:10091B008B098A0A890BAB09AA0AA90B120A09FFD0
:10092B006010120A837401250BF50BE4350AF50AE6
:03093B0080E42233
:100800008F087BFF7A0979B812091BE508C3946445
:10081000400CE50875F064842430FF120A83E50873
:10082000C3940A4011E50875F06484E5F075F00A98
:10083000842430FF8009E508C3946450057F30129A
:100840000A83E50875F00A84E5F02430FF120A8374
:0E0850007FDF120A837BFF7A0979C302091B3E
:1008E00012085E7FC87E0012093E7BFF7A0979C537
:1008F00012091B7FF47E0112093E120A777D01E482
:10090000FF12095EE4FDFF12095E1208A3AF0C128C
:0B09100008007FF47E0112093E80E920
:100A0900BB010689828A83E0225002E722BBFE02EB
:090A1900E32289828A83E493221E
:00000001FF
