:03000000020800F3
:0C080000787FE4F6D8FD758142020847BD
:0C0B1F000A2FC0F9A4B0999282F88090CF
:080AFA00F8E6F5807F5A7E004A
:0B0B0200EF1FAC0670011E4C70F622C5
:070B0D00120AE07F647E0084
:0B0B1400EF1FAC0670011E4C70F622B3
:100A9A00E4FDD2B77F08FE120B14C2B77F507E0066
:100AAA00120B14D2B77F0E7E00120B14A2B7E433D6
:080ABA00FD7F147E00020B1405
:100AC200E4FB7D08C2B7EBC313FBD2B730B70343D5
:0D0AD20003807F047E00120B14DDE9AF03EA
:010ADF0022F4
:020AE000AD0760
:100AE2007B08C2B7ED1392B77F057E00120B14D2BA
:070AF200B7EDC313FDDBEBC0
:010AF90022DA
:100A2E00E4FAFFF508120A9A7FCC120AE07F44120C
:100A3E000B0D120A9A7FCC120AE07FBE120B0D121A
:100A4E000AC2AA07120AC2EF75F010A4F52685F0A5
:100A5E0025EA54F0C4540F2526F526E43525F52550
:010A6E002265
:10088C0020901C053EE53E7002053D753901E4F5EE
:10089C002EE53E6402453D7006F53DF53EF53920EA
:1008AC0090117FE87E03120B023090FD7FE87E03EF
:1008BC00120B02E539705420911B052E7FE87E0344
:1008CC00120B023091FD7FE87E03120B02E52EB471
:1008DC000203E4F52EE52EB40131C3E5269463E55D
:1008EC002564809480501220920F0526E526700214
:1008FC0005257F287E23120B0220930FE526152653
:0C090C00700215257F287E23120B0222AA
:10091800D3E5269463E52564809480400675250018
:10092800752663C3E5269401E52564809480500507
:10093800E4F525F526E4F53FF5407580FFC2A3AE42
:1009480025AF267C007D0A1209A3742F2F120AFAFC
:10095800D2A37580FFC2A2AE25AF267C007D0A1205
:1009680009A3742F2D120AFAD2A27580FFC2A175AD
:10097800809C120AFED2A17580FFC2A07580C612A3
:100988000AFED2A07580FF0540E5407002053FC30E
:0B0998009464E53F6480948040A0223E
:100A6F007590FFE4F53AF53B120A9A7590FF12085C
:100A7F008CE52E64016003120A2EE52EB401077F68
:0B0A8F00807E96120B0212091880E016
:10080C00020A6FE493A3F8E493A34003F68001F289
:10081C0008DFF48029E493A3F85407240CC8C333ED
:10082C00C4540F4420C8834004F456800146F6DFBC
:10083C00E4800B0102040810204080900B1FE47E22
:10084C00019360BCA3FF543F30E509541FFEE493B1
:10085C00A360010ECF54C025E060A840B8E493A378
:10086C00FAE493A3F8E493A3C8C582C8CAC583CAA3
:10087C00F0A3C8C582C8CAC583CADFE9DEE780BE5B
:010B2B0000C9
:1009A300C2D5EC30E709B2D5E4C39DFDE49CFCEE6F
:1009B30030E715B2D5E4C39FFFE49EFE1209D9C305
:1009C300E49DFDE49CFC80031209D930D507C3E400
:0609D3009FFFE49EFE22DE
:1009D900BC000BBE0029EF8DF084FFADF022E4CC02
:1009E900F875F008EF2FFFEE33FEEC33FCEE9DECCB
:1009F900984005FCEE9DFE0FD5F0E9E4CEFD22ED11
:100A0900F8F5F0EE8420D21CFEADF075F008EF2F5A
:100A1900FFED33FD4007985006D5F0F222C398FD4B
:050A29000FD5F0EA22E8
:00000001FF
