:03000000020AD21F
:0C0AD200787FE4F6D8FD75810C0208CC9A
:100A38004E6869657420646F3A20004600446F2050
:0C0A48006E6869657420646F2E2E2E000D
:100A9C00E4FDFCC3ED9FEC9E50070DBD00010C80E6
:010AAC00F257
:010AAD002226
:1009BE00E4FDFCC3ED9FEC9E5015E4FBFA0BBB006F
:0F09CE00010AEB647D4A70F50DBD00010C80E459
:0109DD0022F7
:070AAE00120A6F7F0A7E00AF
:0B0AB500EF1FAC0670011E4C70F62213
:100A5400D2807F087E00120AB5C2807F417E0012D8
:0B0A64000AB5D2807F147E00020AB5A4
:1009FE00E4FB7D08C280EBC313FBD280308003433F
:0D0A0E0003807F047E00120AB5DDE9AF030E
:010A1B0022B8
:020A6F00AD07D1
:100A71007B08C280ED1392807F057E00120AB5D2F9
:070A810080EDC313FDDBEB68
:010A8800224B
:10095E00E4FAFF120A547FCC120A6F7F44120AAED9
:10096E00120A547FCC120A6F7FBE120AAE1209FE13
:10097E00AA071209FEEFFE7C00E42AFFEC3EC4F843
:0C098E0054F0C8EFC4540F48F50CD2AF71
:01099A00223A
:030A8900120A1C32
:100A8C00D2A27F037E00120A9CC2A27F32020A9C71
:100A1C00EF1392A4EFC3131392A5EF1313543F13C8
:0C0A2C0092A6EF131313541F1392A7227D
:100AC000AB07EBC4540FFF120A89AF03120A1C02D2
:020AD0000A8C8E
:0C0ADE007F01120AC07F0A7E00020A9C01
:10091900E4FF120A1C7F147E001209BEC2A0C2A104
:100929007F03120A897F057E001209BE120A8C7F95
:10093900647E00120A9C120A8C7F02120A1C120A97
:100949008C7F28120AC07F0C120AC07F06120AC0C7
:050959007F01020AC04D
:1009DE00ED7006EF2480FA8004EF24C0FA7FE87EE3
:1009EE0003120A9CAF02120AC07F327E00020A9CDA
:080AEA00D2A0120AC0C2A02232
:10099B008B098A0A890BAB09AA0AA90B120800FF5B
:1009AB006010120AEA7401250BF50BE4350AF50AFF
:0309BB0080E422B3
:10086E008F087BFF7A0A793812099BE508C39464D6
:10087E00400CE50875F064842430FF120AEAE5089E
:10088E00C3940A4011E50875F06484E5F075F00A2A
:10089E00842430FF8009E508C3946450057F30122C
:1008AE000AEAE50875F00A84E5F02430FF120AEA38
:0E08BE007FDF120AEA7BFF7A0A794302099B68
:1008CC001209197FC87E001209BE7BFF7A0A79458E
:1008DC0012099B7FF47E011209BE120ADE7D01E42F
:1008EC00FF1209DEE4FDFF1209DE12095EE50C754C
:1008FC00F009A4FFAEF07C007D05120819EF24204E
:0D090C00FF12086E7FF47E011209BE80D735
:10080000BB010689828A83E0225002E722BBFE02F6
:09081000E32289828A83E4932229
:10081900BC000BBE0029EF8DF084FFADF022E4CCC3
:10082900F875F008EF2FFFEE33FEEC33FCEE9DEC8C
:10083900984005FCEE9DFE0FD5F0E9E4CEFD22EDD2
:10084900F8F5F0EE8420D21CFEADF075F008EF2F1C
:10085900FFED33FD4007985006D5F0F222C398FD0D
:050869000FD5F0EA22AA
:00000001FF
