:1000000002010F02000000000000000200000000DA
:1000100000000002000000000000000200000000DC
:06002000000000020000D8
:10002600750D00750E00C3E50D94C8E50E940050DD
:100036000E7401250DF50D7400350EF50E80E722C0
:10004600750B00750C00C3E50B940874006480F80A
:10005600E50C648098502AA90B7401098002C33309
:10006600D9FCF864FFF5A0E50A250BF886B0112641
:1000760075A0FF7401250BF50B7400350CF50C808B
:02008600C52291
:10008800750800750900C3E508943274006480F8A7
:10009800E5096480985013750A40114674012508D3
:1000A800F50874003509F50980DC75080075090044
:1000B800C3E508943274006480F8E50964809850B8
:1000C80013750A38114674012508F50874003509B6
:1000D800F50980DC750800750900C3E508943274D9
:1000E800006480F8E5096480985013750A30114659
:0F00F80074012508F50874003509F50980DC222C
:08010700E493F608A3D9F922E4
:0C010F00758148120133118880FC80FECD
:0E0133007830791875821B758301120107223E
:08011B00FF181818181818FF4E
:080123003C66C3C3C3C3663C84
:08012B00C3C3C3FFFFC3C3C33C
:00000001FF
